:100000000C9434000C943E000C943E000C943E0082
:100010000C943E000C943E000C943E000C943E0068
:100020000C943E000C943E000C943E000C943E0058
:100030000C943E000C943E000C943E000C943E0048
:100040000C943E000C943E000C943E000C943E0038
:100050000C943E000C943E000C943E000C943E0028
:100060000C943E000C943E0011241FBECFEFD8E04C
:10007000DEBFCDBF0E9458000C945E000C940000BF
:100080002D9A2FEF80E792E0215080409040E1F7D9
:1000900000C0000085B18095807285B92FEF80E7A0
:1000A00092E0215080409040E1F700C000000895A8
:1000B0008FEF84B915B80E944000FDCFF894FFCFB0
:00000001FF
