:100000000C9434000C943E000C943E000C943E0082
:100010000C943E000C943E000C943E000C943E0068
:100020000C943E000C943E000C943E000C943E0058
:100030000C943E000C943E000C943E000C943E0048
:100040000C9440000C943E000C943E000C943E0036
:100050000C943E000C943E000C943E000C943E0028
:100060000C943E000C943E0011241FBECFEFD8E04C
:10007000DEBFCDBF0E944B000C9454000C940000D6
:100080001F920F920FB60F9211242D980F900FBE52
:100090000F901F901895259A83E085BD81E080938D
:0C00A0006E0078942D9AFECFF894FFCFEC
:00000001FF
